{
    "contractName": "ANVRaffleNFT",
    "abi": [
        {
            "inputs": [
                {
                    "internalType": "string",
                    "name": "_name",
                    "type": "string"
                },
                {
                    "internalType": "string",
                    "name": "_symbol",
                    "type": "string"
                }
            ],
            "stateMutability": "nonpayable",
            "type": "constructor"
        },
        {
            "anonymous": false,
            "inputs": [
                {
                    "indexed": true,
                    "internalType": "address",
                    "name": "owner",
                    "type": "address"
                },
                {
                    "indexed": true,
                    "internalType": "address",
                    "name": "approved",
                    "type": "address"
                },
                {
                    "indexed": true,
                    "internalType": "uint256",
                    "name": "tokenId",
                    "type": "uint256"
                }
            ],
            "name": "Approval",
            "type": "event"
        },
        {
            "anonymous": false,
            "inputs": [
                {
                    "indexed": true,
                    "internalType": "address",
                    "name": "owner",
                    "type": "address"
                },
                {
                    "indexed": true,
                    "internalType": "address",
                    "name": "operator",
                    "type": "address"
                },
                {
                    "indexed": false,
                    "internalType": "bool",
                    "name": "approved",
                    "type": "bool"
                }
            ],
            "name": "ApprovalForAll",
            "type": "event"
        },
        {
            "anonymous": false,
            "inputs": [
                {
                    "indexed": true,
                    "internalType": "address",
                    "name": "previousOwner",
                    "type": "address"
                },
                {
                    "indexed": true,
                    "internalType": "address",
                    "name": "newOwner",
                    "type": "address"
                }
            ],
            "name": "OwnershipTransferred",
            "type": "event"
        },
        {
            "anonymous": false,
            "inputs": [
                {
                    "indexed": false,
                    "internalType": "address",
                    "name": "account",
                    "type": "address"
                }
            ],
            "name": "Paused",
            "type": "event"
        },
        {
            "anonymous": false,
            "inputs": [
                {
                    "indexed": true,
                    "internalType": "address",
                    "name": "from",
                    "type": "address"
                },
                {
                    "indexed": true,
                    "internalType": "address",
                    "name": "to",
                    "type": "address"
                },
                {
                    "indexed": true,
                    "internalType": "uint256",
                    "name": "tokenId",
                    "type": "uint256"
                }
            ],
            "name": "Transfer",
            "type": "event"
        },
        {
            "anonymous": false,
            "inputs": [
                {
                    "indexed": false,
                    "internalType": "address",
                    "name": "account",
                    "type": "address"
                }
            ],
            "name": "Unpaused",
            "type": "event"
        },
        {
            "inputs": [
                {
                    "internalType": "address",
                    "name": "to",
                    "type": "address"
                },
                {
                    "internalType": "uint256",
                    "name": "tokenId",
                    "type": "uint256"
                }
            ],
            "name": "approve",
            "outputs": [],
            "stateMutability": "nonpayable",
            "type": "function"
        },
        {
            "inputs": [
                {
                    "internalType": "address",
                    "name": "owner",
                    "type": "address"
                }
            ],
            "name": "balanceOf",
            "outputs": [
                {
                    "internalType": "uint256",
                    "name": "",
                    "type": "uint256"
                }
            ],
            "stateMutability": "view",
            "type": "function"
        },
        {
            "inputs": [
                {
                    "internalType": "uint256",
                    "name": "tokenId",
                    "type": "uint256"
                }
            ],
            "name": "burn",
            "outputs": [],
            "stateMutability": "nonpayable",
            "type": "function"
        },
        {
            "inputs": [
                {
                    "internalType": "uint256",
                    "name": "tokenId",
                    "type": "uint256"
                }
            ],
            "name": "getApproved",
            "outputs": [
                {
                    "internalType": "address",
                    "name": "",
                    "type": "address"
                }
            ],
            "stateMutability": "view",
            "type": "function"
        },
        {
            "inputs": [
                {
                    "internalType": "address",
                    "name": "owner",
                    "type": "address"
                },
                {
                    "internalType": "address",
                    "name": "operator",
                    "type": "address"
                }
            ],
            "name": "isApprovedForAll",
            "outputs": [
                {
                    "internalType": "bool",
                    "name": "",
                    "type": "bool"
                }
            ],
            "stateMutability": "view",
            "type": "function"
        },
        {
            "inputs": [
                {
                    "internalType": "address",
                    "name": "to",
                    "type": "address"
                },
                {
                    "internalType": "uint256",
                    "name": "tokenId",
                    "type": "uint256"
                },
                {
                    "internalType": "string",
                    "name": "_tokenURI",
                    "type": "string"
                }
            ],
            "name": "mintWithTokenURI",
            "outputs": [],
            "stateMutability": "nonpayable",
            "type": "function"
        },
        {
            "inputs": [],
            "name": "name",
            "outputs": [
                {
                    "internalType": "string",
                    "name": "",
                    "type": "string"
                }
            ],
            "stateMutability": "view",
            "type": "function"
        },
        {
            "inputs": [],
            "name": "owner",
            "outputs": [
                {
                    "internalType": "address",
                    "name": "",
                    "type": "address"
                }
            ],
            "stateMutability": "view",
            "type": "function"
        },
        {
            "inputs": [
                {
                    "internalType": "uint256",
                    "name": "tokenId",
                    "type": "uint256"
                }
            ],
            "name": "ownerOf",
            "outputs": [
                {
                    "internalType": "address",
                    "name": "",
                    "type": "address"
                }
            ],
            "stateMutability": "view",
            "type": "function"
        },
        {
            "inputs": [
                {
                    "internalType": "uint256",
                    "name": "tokenId",
                    "type": "uint256"
                }
            ],
            "name": "pause",
            "outputs": [],
            "stateMutability": "nonpayable",
            "type": "function"
        },
        {
            "inputs": [],
            "name": "pauseAll",
            "outputs": [],
            "stateMutability": "nonpayable",
            "type": "function"
        },
        {
            "inputs": [
                {
                    "internalType": "uint256",
                    "name": "tokenId",
                    "type": "uint256"
                }
            ],
            "name": "paused",
            "outputs": [
                {
                    "internalType": "bool",
                    "name": "",
                    "type": "bool"
                }
            ],
            "stateMutability": "view",
            "type": "function"
        },
        {
            "inputs": [],
            "name": "pausedAll",
            "outputs": [
                {
                    "internalType": "bool",
                    "name": "",
                    "type": "bool"
                }
            ],
            "stateMutability": "view",
            "type": "function"
        },
        {
            "inputs": [],
            "name": "renounceOwnership",
            "outputs": [],
            "stateMutability": "nonpayable",
            "type": "function"
        },
        {
            "inputs": [
                {
                    "internalType": "address",
                    "name": "from",
                    "type": "address"
                },
                {
                    "internalType": "address",
                    "name": "to",
                    "type": "address"
                },
                {
                    "internalType": "uint256",
                    "name": "tokenId",
                    "type": "uint256"
                }
            ],
            "name": "safeTransferFrom",
            "outputs": [],
            "stateMutability": "nonpayable",
            "type": "function"
        },
        {
            "inputs": [
                {
                    "internalType": "address",
                    "name": "from",
                    "type": "address"
                },
                {
                    "internalType": "address",
                    "name": "to",
                    "type": "address"
                },
                {
                    "internalType": "uint256",
                    "name": "tokenId",
                    "type": "uint256"
                },
                {
                    "internalType": "bytes",
                    "name": "data",
                    "type": "bytes"
                }
            ],
            "name": "safeTransferFrom",
            "outputs": [],
            "stateMutability": "nonpayable",
            "type": "function"
        },
        {
            "inputs": [
                {
                    "internalType": "address",
                    "name": "operator",
                    "type": "address"
                },
                {
                    "internalType": "bool",
                    "name": "approved",
                    "type": "bool"
                }
            ],
            "name": "setApprovalForAll",
            "outputs": [],
            "stateMutability": "nonpayable",
            "type": "function"
        },
        {
            "inputs": [
                {
                    "internalType": "string",
                    "name": "_URIWhenPaused",
                    "type": "string"
                }
            ],
            "name": "setWhenPausedURI",
            "outputs": [],
            "stateMutability": "nonpayable",
            "type": "function"
        },
        {
            "inputs": [
                {
                    "internalType": "bytes4",
                    "name": "interfaceId",
                    "type": "bytes4"
                }
            ],
            "name": "supportsInterface",
            "outputs": [
                {
                    "internalType": "bool",
                    "name": "",
                    "type": "bool"
                }
            ],
            "stateMutability": "view",
            "type": "function"
        },
        {
            "inputs": [],
            "name": "symbol",
            "outputs": [
                {
                    "internalType": "string",
                    "name": "",
                    "type": "string"
                }
            ],
            "stateMutability": "view",
            "type": "function"
        },
        {
            "inputs": [
                {
                    "internalType": "uint256",
                    "name": "tokenId",
                    "type": "uint256"
                }
            ],
            "name": "tokenURI",
            "outputs": [
                {
                    "internalType": "string",
                    "name": "",
                    "type": "string"
                }
            ],
            "stateMutability": "view",
            "type": "function"
        },
        {
            "inputs": [
                {
                    "internalType": "address",
                    "name": "from",
                    "type": "address"
                },
                {
                    "internalType": "address",
                    "name": "to",
                    "type": "address"
                },
                {
                    "internalType": "uint256",
                    "name": "tokenId",
                    "type": "uint256"
                }
            ],
            "name": "transferFrom",
            "outputs": [],
            "stateMutability": "nonpayable",
            "type": "function"
        },
        {
            "inputs": [
                {
                    "internalType": "address",
                    "name": "newOwner",
                    "type": "address"
                }
            ],
            "name": "transferOwnership",
            "outputs": [],
            "stateMutability": "nonpayable",
            "type": "function"
        },
        {
            "inputs": [
                {
                    "internalType": "uint256",
                    "name": "tokenId",
                    "type": "uint256"
                }
            ],
            "name": "unpause",
            "outputs": [],
            "stateMutability": "nonpayable",
            "type": "function"
        },
        {
            "inputs": [],
            "name": "unpauseAll",
            "outputs": [],
            "stateMutability": "nonpayable",
            "type": "function"
        }
    ],
    "bytecode": "60806040523480156200001157600080fd5b50604051620022853803806200228583398101604081905262000034916200019d565b8181600062000044838262000296565b50600162000053828262000296565b505050620000706200006a6200008260201b60201c565b62000086565b50506009805460ff1916905562000362565b3390565b600780546001600160a01b038381166001600160a01b0319831681179093556040519116919082907f8be0079c531659141344cd1fd0a4f28419497f9722a3daafe3b4186f6b6457e090600090a35050565b634e487b7160e01b600052604160045260246000fd5b600082601f8301126200010057600080fd5b81516001600160401b03808211156200011d576200011d620000d8565b604051601f8301601f19908116603f01168101908282118183101715620001485762000148620000d8565b816040528381526020925086838588010111156200016557600080fd5b600091505b838210156200018957858201830151818301840152908201906200016a565b600093810190920192909252949350505050565b60008060408385031215620001b157600080fd5b82516001600160401b0380821115620001c957600080fd5b620001d786838701620000ee565b93506020850151915080821115620001ee57600080fd5b50620001fd85828601620000ee565b9150509250929050565b600181811c908216806200021c57607f821691505b6020821081036200023d57634e487b7160e01b600052602260045260246000fd5b50919050565b601f8211156200029157600081815260208120601f850160051c810160208610156200026c5750805b601f850160051c820191505b818110156200028d5782815560010162000278565b5050505b505050565b81516001600160401b03811115620002b257620002b2620000d8565b620002ca81620002c3845462000207565b8462000243565b602080601f831160018114620003025760008415620002e95750858301515b600019600386901b1c1916600185901b1785556200028d565b600085815260208120601f198616915b82811015620003335788860151825594840194600190910190840162000312565b5085821015620003525787850151600019600388901b60f8161c191681555b5050505050600190811b01905550565b611f1380620003726000396000f3fe608060405234801561001057600080fd5b50600436106101725760003560e01c80636352211e116100de5780639be6390e11610097578063c87b56dd11610071578063c87b56dd1461031f578063e985e9c514610332578063f2fde38b14610345578063fabc1cbc1461035857600080fd5b80639be6390e146102ee578063a22cb465146102f9578063b88d4fde1461030c57600080fd5b80636352211e1461029157806370a08231146102a4578063715018a6146102c55780638a2ddd03146102cd5780638da5cb5b146102d557806395d89b41146102e657600080fd5b8063211b704b11610130578063211b704b1461022a57806323b872dd1461023d57806342842e0e1461025057806342966c681461026357806350bb4e7f14610276578063595c6a671461028957600080fd5b8062dde10e1461017757806301ffc9a7146101af57806306fdde03146101c2578063081812fc146101d7578063095ea7b314610202578063136439dd14610217575b600080fd5b61019a610185366004611832565b60009081526008602052604090205460ff1690565b60405190151581526020015b60405180910390f35b61019a6101bd366004611861565b61036b565b6101ca61037c565b6040516101a691906118ce565b6101ea6101e5366004611832565b61040e565b6040516001600160a01b0390911681526020016101a6565b6102156102103660046118fd565b610435565b005b610215610225366004611832565b61054f565b6102156102383660046119d3565b610563565b61021561024b366004611a08565b61057b565b61021561025e366004611a08565b6105ad565b610215610271366004611832565b6105c8565b610215610284366004611a44565b6105f6565b61021561060a565b6101ea61029f366004611832565b61061c565b6102b76102b2366004611a9b565b61067c565b6040519081526020016101a6565b610215610702565b610215610714565b6007546001600160a01b03166101ea565b6101ca610724565b60095460ff1661019a565b610215610307366004611ab6565b610733565b61021561031a366004611af2565b61073e565b6101ca61032d366004611832565b610776565b61019a610340366004611b6e565b610829565b610215610353366004611a9b565b610857565b610215610366366004611832565b6108cd565b6000610376826108de565b92915050565b60606000805461038b90611ba1565b80601f01602080910402602001604051908101604052809291908181526020018280546103b790611ba1565b80156104045780601f106103d957610100808354040283529160200191610404565b820191906000526020600020905b8154815290600101906020018083116103e757829003601f168201915b5050505050905090565b60006104198261092e565b506000908152600460205260409020546001600160a01b031690565b60006104408261061c565b9050806001600160a01b0316836001600160a01b0316036104b25760405162461bcd60e51b815260206004820152602160248201527f4552433732313a20617070726f76616c20746f2063757272656e74206f776e656044820152603960f91b60648201526084015b60405180910390fd5b336001600160a01b03821614806104ce57506104ce8133610829565b6105405760405162461bcd60e51b815260206004820152603d60248201527f4552433732313a20617070726f76652063616c6c6572206973206e6f7420746f60448201527f6b656e206f776e6572206f7220617070726f76656420666f7220616c6c00000060648201526084016104a9565b61054a838361098d565b505050565b6105576109fb565b61056081610a55565b50565b61056b6109fb565b600b6105778282611c29565b5050565b610586335b82610abf565b6105a25760405162461bcd60e51b81526004016104a990611ce9565b61054a838383610b1e565b61054a8383836040518060200160405280600081525061073e565b6105d133610580565b6105ed5760405162461bcd60e51b81526004016104a990611ce9565b61056081610c8f565b6106008383610c98565b61054a8282610e31565b6106126109fb565b61061a610ec4565b565b6000818152600260205260408120546001600160a01b0316806103765760405162461bcd60e51b8152602060048201526018602482015277115490cdcc8c4e881a5b9d985b1a59081d1bdad95b88125160421b60448201526064016104a9565b60006001600160a01b0382166106e65760405162461bcd60e51b815260206004820152602960248201527f4552433732313a2061646472657373207a65726f206973206e6f7420612076616044820152683634b21037bbb732b960b91b60648201526084016104a9565b506001600160a01b031660009081526003602052604090205490565b61070a6109fb565b61061a6000610f1e565b61071c6109fb565b61061a610f70565b60606001805461038b90611ba1565b610577338383610fa9565b6107483383610abf565b6107645760405162461bcd60e51b81526004016104a990611ce9565b61077084848484611077565b50505050565b6000818152600c602052604090205460609060ff161561082057600d805461079d90611ba1565b80601f01602080910402602001604051908101604052809291908181526020018280546107c990611ba1565b80156108165780601f106107eb57610100808354040283529160200191610816565b820191906000526020600020905b8154815290600101906020018083116107f957829003601f168201915b5050505050610376565b610376826110aa565b6001600160a01b03918216600090815260056020908152604080832093909416825291909152205460ff1690565b61085f6109fb565b6001600160a01b0381166108c45760405162461bcd60e51b815260206004820152602660248201527f4f776e61626c653a206e6577206f776e657220697320746865207a65726f206160448201526564647265737360d01b60648201526084016104a9565b61056081610f1e565b6108d56109fb565b610560816111b2565b60006001600160e01b031982166380ac58cd60e01b148061090f57506001600160e01b03198216635b5e139f60e01b145b8061037657506301ffc9a760e01b6001600160e01b0319831614610376565b6000818152600260205260409020546001600160a01b03166105605760405162461bcd60e51b8152602060048201526018602482015277115490cdcc8c4e881a5b9d985b1a59081d1bdad95b88125160421b60448201526064016104a9565b600081815260046020526040902080546001600160a01b0319166001600160a01b03841690811790915581906109c28261061c565b6001600160a01b03167f8c5be1e5ebec7d5bd14f71427d1e84f3dd0314c0f7b2291e5b200ac8c7c3b92560405160405180910390a45050565b6007546001600160a01b0316331461061a5760405162461bcd60e51b815260206004820181905260248201527f4f776e61626c653a2063616c6c6572206973206e6f7420746865206f776e657260448201526064016104a9565b80610a5f816111f9565b6000828152600860205260409020805460ff191660011790557f62e78cea01bee320cd4e420270b5ea74000d11b0c9f74754ebdbfc544b05a258610aa03390565b6040516001600160a01b03909116815260200160405180910390a15050565b600080610acb8361061c565b9050806001600160a01b0316846001600160a01b03161480610af25750610af28185610829565b80610b165750836001600160a01b0316610b0b8461040e565b6001600160a01b0316145b949350505050565b826001600160a01b0316610b318261061c565b6001600160a01b031614610b575760405162461bcd60e51b81526004016104a990611d36565b6001600160a01b038216610bb95760405162461bcd60e51b8152602060048201526024808201527f4552433732313a207472616e7366657220746f20746865207a65726f206164646044820152637265737360e01b60648201526084016104a9565b610bc6838383600161124b565b826001600160a01b0316610bd98261061c565b6001600160a01b031614610bff5760405162461bcd60e51b81526004016104a990611d36565b600081815260046020908152604080832080546001600160a01b03199081169091556001600160a01b0387811680865260038552838620805460001901905590871680865283862080546001019055868652600290945282852080549092168417909155905184937fddf252ad1be2c89b69c2b068fc378daa952ba7f163c4a11628f55a4df523b3ef91a4505050565b61056081611257565b6001600160a01b038216610cee5760405162461bcd60e51b815260206004820181905260248201527f4552433732313a206d696e7420746f20746865207a65726f206164647265737360448201526064016104a9565b6000818152600260205260409020546001600160a01b031615610d535760405162461bcd60e51b815260206004820152601c60248201527f4552433732313a20746f6b656e20616c7265616479206d696e7465640000000060448201526064016104a9565b610d6160008383600161124b565b6000818152600260205260409020546001600160a01b031615610dc65760405162461bcd60e51b815260206004820152601c60248201527f4552433732313a20746f6b656e20616c7265616479206d696e7465640000000060448201526064016104a9565b6001600160a01b038216600081815260036020908152604080832080546001019055848352600290915280822080546001600160a01b0319168417905551839291907fddf252ad1be2c89b69c2b068fc378daa952ba7f163c4a11628f55a4df523b3ef908290a45050565b6000828152600260205260409020546001600160a01b0316610eac5760405162461bcd60e51b815260206004820152602e60248201527f45524337323155524953746f726167653a2055524920736574206f66206e6f6e60448201526d32bc34b9ba32b73a103a37b5b2b760911b60648201526084016104a9565b600082815260066020526040902061054a8282611c29565b610ecc611297565b6009805460ff191660011790557f62e78cea01bee320cd4e420270b5ea74000d11b0c9f74754ebdbfc544b05a258610f013390565b6040516001600160a01b03909116815260200160405180910390a1565b600780546001600160a01b038381166001600160a01b0319831681179093556040519116919082907f8be0079c531659141344cd1fd0a4f28419497f9722a3daafe3b4186f6b6457e090600090a35050565b610f786112dd565b6009805460ff191690557f5db9ee0a495bf2e6ff9c91a7834c1ba4fdd244a5e8aa4e537bd38aeae4b073aa33610f01565b816001600160a01b0316836001600160a01b03160361100a5760405162461bcd60e51b815260206004820152601960248201527f4552433732313a20617070726f766520746f2063616c6c65720000000000000060448201526064016104a9565b6001600160a01b03838116600081815260056020908152604080832094871680845294825291829020805460ff191686151590811790915591519182527f17307eab39ab6107e8899845ad3d59bd9653f200f220920489ca2b5937696c31910160405180910390a3505050565b611082848484610b1e565b61108e84848484611326565b6107705760405162461bcd60e51b81526004016104a990611d7b565b60606110b58261092e565b600082815260066020526040812080546110ce90611ba1565b80601f01602080910402602001604051908101604052809291908181526020018280546110fa90611ba1565b80156111475780601f1061111c57610100808354040283529160200191611147565b820191906000526020600020905b81548152906001019060200180831161112a57829003601f168201915b50505050509050600061116560408051602081019091526000815290565b90508051600003611177575092915050565b8151156111a9578082604051602001611191929190611dcd565b60405160208183030381529060405292505050919050565b610b1684611427565b806111bc8161149b565b6000828152600860205260409020805460ff191690557f5db9ee0a495bf2e6ff9c91a7834c1ba4fdd244a5e8aa4e537bd38aeae4b073aa33610aa0565b60008181526008602052604090205460ff16156105605760405162461bcd60e51b815260206004820152601060248201526f14185d5cd8589b194e881c185d5cd95960821b60448201526064016104a9565b610770848484846114f0565b6112608161154e565b6000818152600660205260409020805461127990611ba1565b159050610560576000818152600660205260408120610560916117e4565b60095460ff161561061a5760405162461bcd60e51b815260206004820152601060248201526f14185d5cd8589b194e881c185d5cd95960821b60448201526064016104a9565b60095460ff1661061a5760405162461bcd60e51b815260206004820152601460248201527314185d5cd8589b194e881b9bdd081c185d5cd95960621b60448201526064016104a9565b60006001600160a01b0384163b1561141c57604051630a85bd0160e11b81526001600160a01b0385169063150b7a029061136a903390899088908890600401611dfc565b6020604051808303816000875af19250505080156113a5575060408051601f3d908101601f191682019092526113a291810190611e39565b60015b611402573d8080156113d3576040519150601f19603f3d011682016040523d82523d6000602084013e6113d8565b606091505b5080516000036113fa5760405162461bcd60e51b81526004016104a990611d7b565b805181602001fd5b6001600160e01b031916630a85bd0160e11b149050610b16565b506001949350505050565b60606114328261092e565b600061144960408051602081019091526000815290565b905060008151116114695760405180602001604052806000815250611494565b80611473846115f1565b604051602001611484929190611dcd565b6040516020818303038152906040525b9392505050565b60008181526008602052604090205460ff166105605760405162461bcd60e51b815260206004820152601460248201527314185d5cd8589b194e881b9bdd081c185d5cd95960621b60448201526064016104a9565b6114fc84848484611684565b60008281526008602052604090205460ff161561152b5760405162461bcd60e51b81526004016104a990611e56565b60095460ff16156107705760405162461bcd60e51b81526004016104a990611e56565b60006115598261061c565b905061156981600084600161124b565b6115728261061c565b600083815260046020908152604080832080546001600160a01b03199081169091556001600160a01b0385168085526003845282852080546000190190558785526002909352818420805490911690555192935084927fddf252ad1be2c89b69c2b068fc378daa952ba7f163c4a11628f55a4df523b3ef908390a45050565b606060006115fe8361170c565b600101905060008167ffffffffffffffff81111561161e5761161e611927565b6040519080825280601f01601f191660200182016040528015611648576020820181803683370190505b5090508181016020015b600019016f181899199a1a9b1b9c1cb0b131b232b360811b600a86061a8153600a850494508461165257509392505050565b6001811115610770576001600160a01b038416156116ca576001600160a01b038416600090815260036020526040812080548392906116c4908490611eb7565b90915550505b6001600160a01b03831615610770576001600160a01b03831660009081526003602052604081208054839290611701908490611eca565b909155505050505050565b60008072184f03e93ff9f4daa797ed6e38ed64bf6a1f0160401b831061174b5772184f03e93ff9f4daa797ed6e38ed64bf6a1f0160401b830492506040015b6d04ee2d6d415b85acef81000000008310611777576d04ee2d6d415b85acef8100000000830492506020015b662386f26fc10000831061179557662386f26fc10000830492506010015b6305f5e10083106117ad576305f5e100830492506008015b61271083106117c157612710830492506004015b606483106117d3576064830492506002015b600a83106103765760010192915050565b5080546117f090611ba1565b6000825580601f10611800575050565b601f01602090049060005260206000209081019061056091905b8082111561182e576000815560010161181a565b5090565b60006020828403121561184457600080fd5b5035919050565b6001600160e01b03198116811461056057600080fd5b60006020828403121561187357600080fd5b81356114948161184b565b60005b83811015611899578181015183820152602001611881565b50506000910152565b600081518084526118ba81602086016020860161187e565b601f01601f19169290920160200192915050565b60208152600061149460208301846118a2565b80356001600160a01b03811681146118f857600080fd5b919050565b6000806040838503121561191057600080fd5b611919836118e1565b946020939093013593505050565b634e487b7160e01b600052604160045260246000fd5b600067ffffffffffffffff8084111561195857611958611927565b604051601f8501601f19908116603f0116810190828211818310171561198057611980611927565b8160405280935085815286868601111561199957600080fd5b858560208301376000602087830101525050509392505050565b600082601f8301126119c457600080fd5b6114948383356020850161193d565b6000602082840312156119e557600080fd5b813567ffffffffffffffff8111156119fc57600080fd5b610b16848285016119b3565b600080600060608486031215611a1d57600080fd5b611a26846118e1565b9250611a34602085016118e1565b9150604084013590509250925092565b600080600060608486031215611a5957600080fd5b611a62846118e1565b925060208401359150604084013567ffffffffffffffff811115611a8557600080fd5b611a91868287016119b3565b9150509250925092565b600060208284031215611aad57600080fd5b611494826118e1565b60008060408385031215611ac957600080fd5b611ad2836118e1565b915060208301358015158114611ae757600080fd5b809150509250929050565b60008060008060808587031215611b0857600080fd5b611b11856118e1565b9350611b1f602086016118e1565b925060408501359150606085013567ffffffffffffffff811115611b4257600080fd5b8501601f81018713611b5357600080fd5b611b628782356020840161193d565b91505092959194509250565b60008060408385031215611b8157600080fd5b611b8a836118e1565b9150611b98602084016118e1565b90509250929050565b600181811c90821680611bb557607f821691505b602082108103611bd557634e487b7160e01b600052602260045260246000fd5b50919050565b601f82111561054a57600081815260208120601f850160051c81016020861015611c025750805b601f850160051c820191505b81811015611c2157828155600101611c0e565b505050505050565b815167ffffffffffffffff811115611c4357611c43611927565b611c5781611c518454611ba1565b84611bdb565b602080601f831160018114611c8c5760008415611c745750858301515b600019600386901b1c1916600185901b178555611c21565b600085815260208120601f198616915b82811015611cbb57888601518255948401946001909101908401611c9c565b5085821015611cd95787850151600019600388901b60f8161c191681555b5050505050600190811b01905550565b6020808252602d908201527f4552433732313a2063616c6c6572206973206e6f7420746f6b656e206f776e6560408201526c1c881bdc88185c1c1c9bdd9959609a1b606082015260800190565b60208082526025908201527f4552433732313a207472616e736665722066726f6d20696e636f72726563742060408201526437bbb732b960d91b606082015260800190565b60208082526032908201527f4552433732313a207472616e7366657220746f206e6f6e20455243373231526560408201527131b2b4bb32b91034b6b83632b6b2b73a32b960711b606082015260800190565b60008351611ddf81846020880161187e565b835190830190611df381836020880161187e565b01949350505050565b6001600160a01b0385811682528416602082015260408101839052608060608201819052600090611e2f908301846118a2565b9695505050505050565b600060208284031215611e4b57600080fd5b81516114948161184b565b6020808252602b908201527f4552433732315061757361626c653a20746f6b656e207472616e73666572207760408201526a1a1a5b19481c185d5cd95960aa1b606082015260800190565b634e487b7160e01b600052601160045260246000fd5b8181038181111561037657610376611ea1565b8082018082111561037657610376611ea156fea2646970667358221220bb3cf415349cdeed47ca73f466b9b4a95f4ed347be5cb2e97c647c4e318bc97564736f6c63430008110033",
    "sourcePath": "/Users/steve/Library/Mobile Documents/com~apple~CloudDocs/Code/KIP17/Weblabs-Contract/Raffle/contracts/ERC721-ANVPasuable.sol",
    "compiler": {
        "name": "solc",
        "version": "0.8.17+commit.8df45f5f"
    },
    "functionHashes": {
        "approve(address,uint256)": "095ea7b3",
        "balanceOf(address)": "70a08231",
        "burn(uint256)": "42966c68",
        "getApproved(uint256)": "081812fc",
        "isApprovedForAll(address,address)": "e985e9c5",
        "mintWithTokenURI(address,uint256,string)": "50bb4e7f",
        "name()": "06fdde03",
        "owner()": "8da5cb5b",
        "ownerOf(uint256)": "6352211e",
        "pause(uint256)": "136439dd",
        "pauseAll()": "595c6a67",
        "paused(uint256)": "00dde10e",
        "pausedAll()": "9be6390e",
        "renounceOwnership()": "715018a6",
        "safeTransferFrom(address,address,uint256)": "42842e0e",
        "safeTransferFrom(address,address,uint256,bytes)": "b88d4fde",
        "setApprovalForAll(address,bool)": "a22cb465",
        "setWhenPausedURI(string)": "211b704b",
        "supportsInterface(bytes4)": "01ffc9a7",
        "symbol()": "95d89b41",
        "tokenURI(uint256)": "c87b56dd",
        "transferFrom(address,address,uint256)": "23b872dd",
        "transferOwnership(address)": "f2fde38b",
        "unpause(uint256)": "fabc1cbc",
        "unpauseAll()": "8a2ddd03"
    },
    "gasEstimates": {
        "creation": {
            "codeDepositCost": "1591000",
            "executionCost": "infinite",
            "totalCost": "infinite"
        },
        "external": {
            "approve(address,uint256)": "infinite",
            "balanceOf(address)": "2634",
            "burn(uint256)": "infinite",
            "getApproved(uint256)": "4814",
            "isApprovedForAll(address,address)": "infinite",
            "mintWithTokenURI(address,uint256,string)": "infinite",
            "name()": "infinite",
            "owner()": "2442",
            "ownerOf(uint256)": "2561",
            "pause(uint256)": "infinite",
            "pauseAll()": "infinite",
            "paused(uint256)": "2463",
            "pausedAll()": "2338",
            "renounceOwnership()": "infinite",
            "safeTransferFrom(address,address,uint256)": "infinite",
            "safeTransferFrom(address,address,uint256,bytes)": "infinite",
            "setApprovalForAll(address,bool)": "26750",
            "setWhenPausedURI(string)": "infinite",
            "supportsInterface(bytes4)": "infinite",
            "symbol()": "infinite",
            "tokenURI(uint256)": "infinite",
            "transferFrom(address,address,uint256)": "infinite",
            "transferOwnership(address)": "28424",
            "unpause(uint256)": "infinite",
            "unpauseAll()": "infinite"
        },
        "internal": {
            "_beforeTokenTransfer(address,address,uint256,uint256)": "infinite",
            "_burn(uint256)": "infinite"
        }
    }
}