{
    "contractName": "Raffle",
    "abi": [
        {
            "anonymous": false,
            "inputs": [
                {
                    "indexed": true,
                    "internalType": "address",
                    "name": "previousOwner",
                    "type": "address"
                },
                {
                    "indexed": true,
                    "internalType": "address",
                    "name": "newOwner",
                    "type": "address"
                }
            ],
            "name": "OwnershipTransferred",
            "type": "event"
        },
        {
            "anonymous": false,
            "inputs": [
                {
                    "indexed": false,
                    "internalType": "address",
                    "name": "_FT",
                    "type": "address"
                },
                {
                    "indexed": false,
                    "internalType": "uint256",
                    "name": "round",
                    "type": "uint256"
                }
            ],
            "name": "StartedRaffle",
            "type": "event"
        },
        {
            "anonymous": false,
            "inputs": [
                {
                    "indexed": false,
                    "internalType": "address",
                    "name": "_FT",
                    "type": "address"
                },
                {
                    "indexed": false,
                    "internalType": "address",
                    "name": "_NFT",
                    "type": "address"
                },
                {
                    "indexed": false,
                    "internalType": "uint256",
                    "name": "round",
                    "type": "uint256"
                }
            ],
            "name": "addedAvailableNFT",
            "type": "event"
        },
        {
            "anonymous": false,
            "inputs": [
                {
                    "indexed": false,
                    "internalType": "address",
                    "name": "_FT",
                    "type": "address"
                },
                {
                    "indexed": false,
                    "internalType": "address",
                    "name": "_NFT",
                    "type": "address"
                },
                {
                    "indexed": false,
                    "internalType": "uint256",
                    "name": "round",
                    "type": "uint256"
                },
                {
                    "indexed": false,
                    "internalType": "uint256",
                    "name": "_NFTId",
                    "type": "uint256"
                },
                {
                    "indexed": false,
                    "internalType": "uint256",
                    "name": "_price",
                    "type": "uint256"
                }
            ],
            "name": "addedItem",
            "type": "event"
        },
        {
            "anonymous": false,
            "inputs": [
                {
                    "indexed": false,
                    "internalType": "address",
                    "name": "_FT",
                    "type": "address"
                },
                {
                    "indexed": false,
                    "internalType": "uint256",
                    "name": "round",
                    "type": "uint256"
                }
            ],
            "name": "canceledRaffle",
            "type": "event"
        },
        {
            "anonymous": false,
            "inputs": [
                {
                    "indexed": false,
                    "internalType": "address",
                    "name": "_FT",
                    "type": "address"
                },
                {
                    "indexed": false,
                    "internalType": "uint256",
                    "name": "round",
                    "type": "uint256"
                }
            ],
            "name": "completedRaffle",
            "type": "event"
        },
        {
            "anonymous": false,
            "inputs": [
                {
                    "indexed": false,
                    "internalType": "address",
                    "name": "joiner",
                    "type": "address"
                },
                {
                    "indexed": false,
                    "internalType": "address",
                    "name": "_FT",
                    "type": "address"
                },
                {
                    "indexed": false,
                    "internalType": "uint256",
                    "name": "round",
                    "type": "uint256"
                },
                {
                    "indexed": false,
                    "internalType": "uint256",
                    "name": "selectedItem",
                    "type": "uint256"
                },
                {
                    "indexed": false,
                    "internalType": "address",
                    "name": "NFTAddress",
                    "type": "address"
                },
                {
                    "indexed": false,
                    "internalType": "uint256",
                    "name": "userNFT",
                    "type": "uint256"
                }
            ],
            "name": "joinedRaffle",
            "type": "event"
        },
        {
            "anonymous": false,
            "inputs": [
                {
                    "indexed": false,
                    "internalType": "address",
                    "name": "_FT",
                    "type": "address"
                },
                {
                    "indexed": false,
                    "internalType": "address",
                    "name": "_NFT",
                    "type": "address"
                },
                {
                    "indexed": false,
                    "internalType": "uint256",
                    "name": "round",
                    "type": "uint256"
                },
                {
                    "indexed": false,
                    "internalType": "uint256",
                    "name": "itemNumber",
                    "type": "uint256"
                },
                {
                    "indexed": false,
                    "internalType": "address",
                    "name": "winner",
                    "type": "address"
                }
            ],
            "name": "luckyDrawed",
            "type": "event"
        },
        {
            "anonymous": false,
            "inputs": [
                {
                    "indexed": false,
                    "internalType": "address",
                    "name": "_FT",
                    "type": "address"
                },
                {
                    "indexed": false,
                    "internalType": "address",
                    "name": "_NFT",
                    "type": "address"
                },
                {
                    "indexed": false,
                    "internalType": "uint256",
                    "name": "round",
                    "type": "uint256"
                },
                {
                    "indexed": false,
                    "internalType": "uint256",
                    "name": "stratTime",
                    "type": "uint256"
                },
                {
                    "indexed": false,
                    "internalType": "uint256",
                    "name": "endTime",
                    "type": "uint256"
                }
            ],
            "name": "raffleCreated",
            "type": "event"
        },
        {
            "anonymous": false,
            "inputs": [
                {
                    "indexed": false,
                    "internalType": "address",
                    "name": "_FT",
                    "type": "address"
                },
                {
                    "indexed": false,
                    "internalType": "address",
                    "name": "_NFT",
                    "type": "address"
                },
                {
                    "indexed": false,
                    "internalType": "uint256",
                    "name": "round",
                    "type": "uint256"
                },
                {
                    "indexed": false,
                    "internalType": "uint256",
                    "name": "_NFTId",
                    "type": "uint256"
                }
            ],
            "name": "removedItem",
            "type": "event"
        },
        {
            "anonymous": false,
            "inputs": [
                {
                    "indexed": false,
                    "internalType": "address",
                    "name": "_FT",
                    "type": "address"
                },
                {
                    "indexed": false,
                    "internalType": "address",
                    "name": "_admin",
                    "type": "address"
                },
                {
                    "indexed": false,
                    "internalType": "bool",
                    "name": "_status",
                    "type": "bool"
                }
            ],
            "name": "settedAdmin",
            "type": "event"
        },
        {
            "inputs": [
                {
                    "internalType": "address",
                    "name": "_FT",
                    "type": "address"
                },
                {
                    "internalType": "address",
                    "name": "_NFT",
                    "type": "address"
                },
                {
                    "internalType": "uint256",
                    "name": "round",
                    "type": "uint256"
                }
            ],
            "name": "addAvailableNFT",
            "outputs": [],
            "stateMutability": "nonpayable",
            "type": "function"
        },
        {
            "inputs": [
                {
                    "internalType": "address",
                    "name": "_FT",
                    "type": "address"
                },
                {
                    "internalType": "uint256",
                    "name": "round",
                    "type": "uint256"
                },
                {
                    "internalType": "uint256",
                    "name": "_price",
                    "type": "uint256"
                },
                {
                    "internalType": "string",
                    "name": "tokenURI",
                    "type": "string"
                }
            ],
            "name": "addItem",
            "outputs": [],
            "stateMutability": "nonpayable",
            "type": "function"
        },
        {
            "inputs": [
                {
                    "internalType": "address",
                    "name": "_FT",
                    "type": "address"
                },
                {
                    "internalType": "uint256",
                    "name": "round",
                    "type": "uint256"
                }
            ],
            "name": "cancelRaffle",
            "outputs": [],
            "stateMutability": "nonpayable",
            "type": "function"
        },
        {
            "inputs": [
                {
                    "internalType": "address",
                    "name": "_FT",
                    "type": "address"
                },
                {
                    "internalType": "address",
                    "name": "raffleNFT",
                    "type": "address"
                }
            ],
            "name": "createPool",
            "outputs": [],
            "stateMutability": "nonpayable",
            "type": "function"
        },
        {
            "inputs": [
                {
                    "internalType": "address",
                    "name": "_FT",
                    "type": "address"
                },
                {
                    "internalType": "address",
                    "name": "_NFT",
                    "type": "address"
                },
                {
                    "internalType": "uint256",
                    "name": "stratTime",
                    "type": "uint256"
                },
                {
                    "internalType": "uint256",
                    "name": "endTime",
                    "type": "uint256"
                }
            ],
            "name": "createRaffle",
            "outputs": [],
            "stateMutability": "nonpayable",
            "type": "function"
        },
        {
            "inputs": [
                {
                    "internalType": "address",
                    "name": "_FT",
                    "type": "address"
                }
            ],
            "name": "destroyPool",
            "outputs": [],
            "stateMutability": "nonpayable",
            "type": "function"
        },
        {
            "inputs": [
                {
                    "internalType": "address",
                    "name": "_FT",
                    "type": "address"
                },
                {
                    "internalType": "uint256",
                    "name": "round",
                    "type": "uint256"
                }
            ],
            "name": "endRaffle",
            "outputs": [],
            "stateMutability": "nonpayable",
            "type": "function"
        },
        {
            "inputs": [
                {
                    "internalType": "address",
                    "name": "_FT",
                    "type": "address"
                },
                {
                    "internalType": "uint256",
                    "name": "round",
                    "type": "uint256"
                },
                {
                    "internalType": "uint256",
                    "name": "selectedItem",
                    "type": "uint256"
                },
                {
                    "internalType": "address",
                    "name": "NFTAddress",
                    "type": "address"
                },
                {
                    "internalType": "uint256",
                    "name": "userNFT",
                    "type": "uint256"
                }
            ],
            "name": "joinRaffle",
            "outputs": [],
            "stateMutability": "nonpayable",
            "type": "function"
        },
        {
            "inputs": [
                {
                    "internalType": "address",
                    "name": "_FT",
                    "type": "address"
                },
                {
                    "internalType": "address",
                    "name": "_NFT",
                    "type": "address"
                },
                {
                    "internalType": "uint256",
                    "name": "round",
                    "type": "uint256"
                },
                {
                    "internalType": "uint256",
                    "name": "itemNumber",
                    "type": "uint256"
                }
            ],
            "name": "luckyDraw",
            "outputs": [
                {
                    "internalType": "uint256",
                    "name": "_luckyDraw",
                    "type": "uint256"
                },
                {
                    "internalType": "address",
                    "name": "_winner",
                    "type": "address"
                }
            ],
            "stateMutability": "nonpayable",
            "type": "function"
        },
        {
            "inputs": [],
            "name": "owner",
            "outputs": [
                {
                    "internalType": "address",
                    "name": "",
                    "type": "address"
                }
            ],
            "stateMutability": "view",
            "type": "function"
        },
        {
            "inputs": [
                {
                    "internalType": "address",
                    "name": "_FT",
                    "type": "address"
                },
                {
                    "internalType": "address",
                    "name": "_NFT",
                    "type": "address"
                },
                {
                    "internalType": "uint256",
                    "name": "round",
                    "type": "uint256"
                },
                {
                    "internalType": "uint256",
                    "name": "_NFTId",
                    "type": "uint256"
                }
            ],
            "name": "removeItem",
            "outputs": [
                {
                    "internalType": "bool",
                    "name": "",
                    "type": "bool"
                }
            ],
            "stateMutability": "nonpayable",
            "type": "function"
        },
        {
            "inputs": [],
            "name": "renounceOwnership",
            "outputs": [],
            "stateMutability": "nonpayable",
            "type": "function"
        },
        {
            "inputs": [
                {
                    "internalType": "address",
                    "name": "_FT",
                    "type": "address"
                },
                {
                    "internalType": "address",
                    "name": "_admin",
                    "type": "address"
                },
                {
                    "internalType": "bool",
                    "name": "_status",
                    "type": "bool"
                }
            ],
            "name": "setAdmin",
            "outputs": [],
            "stateMutability": "nonpayable",
            "type": "function"
        },
        {
            "inputs": [
                {
                    "internalType": "address",
                    "name": "_FT",
                    "type": "address"
                },
                {
                    "internalType": "uint256",
                    "name": "round",
                    "type": "uint256"
                }
            ],
            "name": "startRaffle",
            "outputs": [],
            "stateMutability": "nonpayable",
            "type": "function"
        },
        {
            "inputs": [
                {
                    "internalType": "address",
                    "name": "newOwner",
                    "type": "address"
                }
            ],
            "name": "transferOwnership",
            "outputs": [],
            "stateMutability": "nonpayable",
            "type": "function"
        }
    ],
    "bytecode": "608060405234801561001057600080fd5b5061001a3361001f565b61006f565b600080546001600160a01b038381166001600160a01b0319831681178455604051919092169283917f8be0079c531659141344cd1fd0a4f28419497f9722a3daafe3b4186f6b6457e09190a35050565b611e368061007e6000396000f3fe608060405234801561001057600080fd5b50600436106100f55760003560e01c80637caaead211610097578063bafa7e8411610066578063bafa7e84146101fc578063d2e9953a1461020f578063e343361514610222578063f2fde38b1461023557600080fd5b80637caaead2146101985780638da5cb5b146101bb5780639db0dd3e146101d6578063a739ffd4146101e957600080fd5b80634eb534a7116100d35780634eb534a714610157578063715018a61461016a5780637404adb6146101725780637c175a6d1461018557600080fd5b806303854651146100fa5780632e24a6561461010f5780633549cba614610122575b600080fd5b61010d610108366004611965565b610248565b005b61010d61011d366004611991565b6103b8565b610135610130366004611991565b610517565b604080519283526001600160a01b039091166020830152015b60405180910390f35b61010d610165366004611965565b610901565b61010d610a6a565b61010d6101803660046119d7565b610a7e565b61010d610193366004611a29565b610f9e565b6101ab6101a6366004611991565b6110d2565b604051901515815260200161014e565b6000546040516001600160a01b03909116815260200161014e565b61010d6101e4366004611a6a565b6112a8565b61010d6101f7366004611965565b6112f6565b61010d61020a366004611aa4565b611417565b61010d61021d366004611b89565b611612565b61010d610230366004611bd4565b6116d1565b61010d610243366004611a6a565b611738565b6001600160a01b03821660009081526001602081815260408084203385529092019052902054829060ff166102985760405162461bcd60e51b815260040161028f90611c0d565b60405180910390fd5b6001600160a01b03831660009081526001602052604081208054849081106102c2576102c2611c38565b6000918252602082206006909102019150600282015460ff1660038111156102ec576102ec611c4e565b146103095760405162461bcd60e51b815260040161028f90611c64565b805443116103595760405162461bcd60e51b815260206004820152601f60248201527f54696d654572726f72203a20526166666c6520697320636f6d706c6574656400604482015260640161028f565b6002810180546001919060ff191682805b0217905550604080516001600160a01b0386168152602081018590527ff828fce2ee1e83d0ecef54473adbbe5652f38e19fd36cbd7279a1f712b93b5a091015b60405180910390a150505050565b6001600160a01b03841660009081526001602081815260408084203385529092019052902054849060ff166103ff5760405162461bcd60e51b815260040161028f90611c0d565b6001600160a01b038516600090815260016020819052604082208054909101808255600282015490811061043557610435611c38565b6000918252602080832060069290920290910186815560018082018790556002808301805460ff1916905560048301805480840182559086528486200180546001600160a01b0319166001600160a01b038c8116919091179091558b168552925260408320909101805491935090916104ad83611cbf565b9091555050604080516001600160a01b0380891682528716602082015260019181019190915260608101859052608081018490527f502a97ed653318721dfdb3a27bf6b9340ffb71db2f00541e120c8de4c5b5a15d9060a0015b60405180910390a1505050505050565b6001600160a01b038416600090815260016020818152604080842033855290920190528120548190869060ff166105605760405162461bcd60e51b815260040161028f90611c0d565b6001600160a01b038716600090815260016020526040812080548790811061058a5761058a611c38565b600091825260208220600690910201915060028083015460ff1660038111156105b5576105b5611c4e565b146106025760405162461bcd60e51b815260206004820152601760248201527f526166666c65206973206e6f7420636f6d706c65746564000000000000000000604482015260640161028f565b600082600301878154811061061957610619611c38565b9060005260206000209060060201600101541161066f5760405162461bcd60e51b81526020600482015260146024820152734e4654206973206e6f7420617661696c61626c6560601b604482015260640161028f565b600082600301878154811061068657610686611c38565b9060005260206000209060060201600201805490504442856003018a815481106106b2576106b2611c38565b6000918252602091829020600260069092020101546040516106e7949392019283526020830191909152604082015260600190565b6040516020818303038152906040528051906020012060001c61070a9190611cd8565b905082600301878154811061072157610721611c38565b9060005260206000209060060201600201818154811061074357610743611c38565b9060005260206000200160009054906101000a90046001600160a01b03169150886001600160a01b03166323b872dd3087866003018b8154811061078957610789611c38565b60009182526020909120600690910201546040516001600160e01b031960e086901b1681526001600160a01b0393841660048201529290911660248301526044820152606401600060405180830381600087803b1580156107e957600080fd5b505af11580156107fd573d6000803e3d6000fd5b505050508183600301888154811061081757610817611c38565b906000526020600020906006020160050160006101000a8154816001600160a01b0302191690836001600160a01b0316021790555082600301878154811061086157610861611c38565b600091825260208083206001600160a01b038616845260046006909302019190910190526040812080549161089583611cfa565b9091555050604080516001600160a01b038c811682528b811660208301528183018b9052606082018a90528416608082015290517ffeda0e0be689e46428b72b839b1bd349ecab2010c92d4b3a5046e204957652469181900360a00190a1999098509650505050505050565b6001600160a01b03821660009081526001602081815260408084203385529092019052902054829060ff166109485760405162461bcd60e51b815260040161028f90611c0d565b6001600160a01b038316600090815260016020526040812080548490811061097257610972611c38565b6000918252602090912060069091020190506001600282015460ff16600381111561099f5761099f611c4e565b146109bc5760405162461bcd60e51b815260040161028f90611c64565b80600101544311610a1b5760405162461bcd60e51b815260206004820152602360248201527f54696d654572726f72203a20526166666c65206973206e6f7420636f6d706c656044820152621d195960ea1b606482015260840161028f565b6002818101805460ff19169091179055604080516001600160a01b0386168152602081018590527f2fec3929d46797e964526a4db4168278f5b44744cfe7e63ec1a5eb35058e8a5791016103aa565b610a726117b1565b610a7c600061180b565b565b6001600160a01b0385166000908152600160205260408120805486908110610aa857610aa8611c38565b6000918252602090912060069091020190506001600282015460ff166003811115610ad557610ad5611c4e565b14610af25760405162461bcd60e51b815260040161028f90611d11565b806003018481548110610b0757610b07611c38565b60009182526020909120600160069092020101546040516370a0823160e01b81523360048201526001600160a01b038816906370a0823190602401602060405180830381865afa158015610b5f573d6000803e3d6000fd5b505050506040513d601f19601f82011682018060405250810190610b839190611d48565b1015610bd15760405162461bcd60e51b815260206004820152601860248201527f596f7520646f6e2774206861766520656e6f7567682046540000000000000000604482015260640161028f565b60005b6004820154811015610d1b57836001600160a01b0316826004018281548110610bff57610bff611c38565b6000918252602090912001546001600160a01b031603610d0957336001600160a01b0316826004018281548110610c3857610c38611c38565b6000918252602090912001546040516331a9108f60e11b8152600481018690526001600160a01b0390911690636352211e90602401602060405180830381865afa158015610c8a573d6000803e3d6000fd5b505050506040513d601f19601f82011682018060405250810190610cae9190611d61565b6001600160a01b031614610d045760405162461bcd60e51b815260206004820152601760248201527f596f7520646f6e277420686176652074686973204e4654000000000000000000604482015260640161028f565b610d1b565b80610d1381611cbf565b915050610bd4565b50806003018481548110610d3157610d31611c38565b600091825260208083206001600160a01b03871684526003600690930201919091018152604080832085845290915290205460ff1615610da65760405162461bcd60e51b815260206004820152601060248201526f151a1a5cc8139195081a5cc81d5cd95960821b604482015260640161028f565b856001600160a01b03166323b872dd3330846003018881548110610dcc57610dcc611c38565b60009182526020909120600160069092020101546040516001600160e01b031960e086901b1681526001600160a01b03938416600482015292909116602483015260448201526064016020604051808303816000875af1158015610e34573d6000803e3d6000fd5b505050506040513d601f19601f82011682018060405250810190610e589190611d7e565b50806003018481548110610e6e57610e6e611c38565b60009182526020808320600260069093020191909101805460018181018355918452919092200180546001600160a01b0319163317905560038201805486908110610ebb57610ebb611c38565b600091825260208083206001600160a01b03881684526003600690930201820181526040808420878552909152909120805492151560ff19909316929092179091558101805485908110610f1157610f11611c38565b60009182526020808320338452600460069093020191909101905260408120805491610f3c83611cbf565b9091555050604080513381526001600160a01b03808916602083015291810187905260608101869052908416608082015260a081018390527f3a4d6c77d374e3e5c1edd24f01f3df689f72974a8ec50b6c7611e5f712edd4069060c001610507565b6001600160a01b03831660009081526001602081815260408084203385529092019052902054839060ff16610fe55760405162461bcd60e51b815260040161028f90611c0d565b6001600160a01b038416600090815260016020526040812080548490811061100f5761100f611c38565b6000918252602082206006909102019150600282015460ff16600381111561103957611039611c4e565b146110565760405162461bcd60e51b815260040161028f90611d11565b60048101805460018101825560009182526020918290200180546001600160a01b0319166001600160a01b03878116918217909255604080519289168352928201529081018490527f5e5bd3bbea4a47b2a13717d54aed5513d00215a71aa7fbec7e30344c71a23b499060600160405180910390a15050505050565b6001600160a01b03841660009081526001602081815260408084203385529092019052812054859060ff166111195760405162461bcd60e51b815260040161028f90611c0d565b6001600160a01b038616600090815260016020526040812080548690811061114357611143611c38565b6000918252602082206006909102019150600282015460ff16600381111561116d5761116d611c4e565b1461118a5760405162461bcd60e51b815260040161028f90611d11565b6001600160a01b03878116600090815260016020526040908190206004908101549151630852cd8d60e31b81529081018790529116906342966c6890602401600060405180830381600087803b1580156111e357600080fd5b505af11580156111f7573d6000803e3d6000fd5b5050505080600301848154811061121057611210611c38565b6000918252602082206006909102018181556001810182905590611237600283018261185b565b5060050180546001600160a01b0319169055604080516001600160a01b03808a16825288166020820152908101869052606081018590527f848040d82becd42443ae6032ee3dfc8f5c861ee36e7da66126a681a1cdf732949060800160405180910390a15060019695505050505050565b6112b06117b1565b6001600160a01b0381166000908152600160205260408120906112d38282611879565b50600060028201819055600382015560040180546001600160a01b031916905550565b6001600160a01b03821660009081526001602081815260408084203385529092019052902054829060ff1661133d5760405162461bcd60e51b815260040161028f90611c0d565b6001600160a01b038316600090815260016020526040812080548490811061136757611367611c38565b6000918252602082206006909102019150600282015460ff16600381111561139157611391611c4e565b146113ae5760405162461bcd60e51b815260040161028f90611c64565b806001015443106114015760405162461bcd60e51b815260206004820152601f60248201527f54696d654572726f72203a20526166666c6520697320636f6d706c6574656400604482015260640161028f565b6002810180546003919060ff191660018361036a565b6001600160a01b03841660009081526001602081815260408084203385529092019052902054849060ff1661145e5760405162461bcd60e51b815260040161028f90611c0d565b6001600160a01b0385166000908152600160205260408120805490919082908790811061148d5761148d611c38565b6000918252602082206006909102019150600282015460ff1660038111156114b7576114b7611c4e565b146114d45760405162461bcd60e51b815260040161028f90611d11565b60048083015460038401546040516350bb4e7f60e01b81526001600160a01b03909216926350bb4e7f9261150e92309290918a9101611d9b565b600060405180830381600087803b15801561152857600080fd5b505af115801561153c573d6000803e3d6000fd5b505050506001600160a01b0387166000908152600160205260409020600390810154908201805461156b611c38565b600091825260209091206006909102015560038101805486919061158d611c38565b6000918252602091829020600160069290920201019190915560048301546003840154604080516001600160a01b038c811682529093169383019390935281830189905260608201526080810187905290517f6360b76e720b52842891e360ec3075bd57cd24ca67289c9193d7ffc3bede078a9181900360a00190a150505050505050565b6001600160a01b03831660009081526001602081815260408084203385529092019052902054839060ff166116595760405162461bcd60e51b815260040161028f90611c0d565b6001600160a01b03848116600081815260016020818152604080842095891680855295909201815291819020805460ff1916871515908117909155815193845291830193909352918101919091527f70aa9f3014d2bd5369e16ae9acf4d2877f1a5c84731be86f5456e41a10e24313906060016103aa565b6116d96117b1565b6001600160a01b0391821660008181526001602081815260408084203385528084018352908420805460ff191684179055938352526004820180546001600160a01b031916939094169290921790925560028201819055600390910155565b6117406117b1565b6001600160a01b0381166117a55760405162461bcd60e51b815260206004820152602660248201527f4f776e61626c653a206e6577206f776e657220697320746865207a65726f206160448201526564647265737360d01b606482015260840161028f565b6117ae8161180b565b50565b6000546001600160a01b03163314610a7c5760405162461bcd60e51b815260206004820181905260248201527f4f776e61626c653a2063616c6c6572206973206e6f7420746865206f776e6572604482015260640161028f565b600080546001600160a01b038381166001600160a01b0319831681178455604051919092169283917f8be0079c531659141344cd1fd0a4f28419497f9722a3daafe3b4186f6b6457e09190a35050565b50805460008255906000526020600020908101906117ae919061189a565b50805460008255600602906000526020600020908101906117ae91906118b3565b5b808211156118af576000815560010161189b565b5090565b808211156118af5760008082556001820181905560028201805460ff191690556118e060038301826118f7565b6118ee60048301600061185b565b506006016118b3565b50805460008255600602906000526020600020908101906117ae91905b808211156118af57600080825560018201819055611935600283018261185b565b506005810180546001600160a01b0319169055600601611914565b6001600160a01b03811681146117ae57600080fd5b6000806040838503121561197857600080fd5b823561198381611950565b946020939093013593505050565b600080600080608085870312156119a757600080fd5b84356119b281611950565b935060208501356119c281611950565b93969395505050506040820135916060013590565b600080600080600060a086880312156119ef57600080fd5b85356119fa81611950565b945060208601359350604086013592506060860135611a1881611950565b949793965091946080013592915050565b600080600060608486031215611a3e57600080fd5b8335611a4981611950565b92506020840135611a5981611950565b929592945050506040919091013590565b600060208284031215611a7c57600080fd5b8135611a8781611950565b9392505050565b634e487b7160e01b600052604160045260246000fd5b60008060008060808587031215611aba57600080fd5b8435611ac581611950565b93506020850135925060408501359150606085013567ffffffffffffffff80821115611af057600080fd5b818701915087601f830112611b0457600080fd5b813581811115611b1657611b16611a8e565b604051601f8201601f19908116603f01168101908382118183101715611b3e57611b3e611a8e565b816040528281528a6020848701011115611b5757600080fd5b82602086016020830137600060208483010152809550505050505092959194509250565b80151581146117ae57600080fd5b600080600060608486031215611b9e57600080fd5b8335611ba981611950565b92506020840135611bb981611950565b91506040840135611bc981611b7b565b809150509250925092565b60008060408385031215611be757600080fd5b8235611bf281611950565b91506020830135611c0281611950565b809150509250929050565b6020808252601190820152702cb7ba9030b932903737ba1030b236b4b760791b604082015260600190565b634e487b7160e01b600052603260045260246000fd5b634e487b7160e01b600052602160045260246000fd5b60208082526025908201527f5374617475734572726f72203a20526166666c65206973206e6f7420617661696040820152646c61626c6560d81b606082015260800190565b634e487b7160e01b600052601160045260246000fd5b600060018201611cd157611cd1611ca9565b5060010190565b600082611cf557634e487b7160e01b600052601260045260246000fd5b500690565b600081611d0957611d09611ca9565b506000190190565b60208082526017908201527f526166666c65206973206e6f7420617661696c61626c65000000000000000000604082015260600190565b600060208284031215611d5a57600080fd5b5051919050565b600060208284031215611d7357600080fd5b8151611a8781611950565b600060208284031215611d9057600080fd5b8151611a8781611b7b565b60018060a01b038416815260006020848184015260606040840152835180606085015260005b81811015611ddd57858101830151858201608001528201611dc1565b506000608082860101526080601f19601f8301168501019250505094935050505056fea26469706673582212208e4ae870d43de3b7e8f6bdcf75da440ad854bab46850031c15c942bf727eae9564736f6c63430008110033",
    "sourcePath": "/Users/steve/Library/Mobile Documents/com~apple~CloudDocs/Code/KIP17/Weblabs-Contract/Raffle/contracts/Raffle.sol",
    "compiler": {
        "name": "solc",
        "version": "0.8.17+commit.8df45f5f"
    },
    "functionHashes": {
        "addAvailableNFT(address,address,uint256)": "7c175a6d",
        "addItem(address,uint256,uint256,string)": "bafa7e84",
        "cancelRaffle(address,uint256)": "a739ffd4",
        "createPool(address,address)": "e3433615",
        "createRaffle(address,address,uint256,uint256)": "2e24a656",
        "destroyPool(address)": "9db0dd3e",
        "endRaffle(address,uint256)": "4eb534a7",
        "joinRaffle(address,uint256,uint256,address,uint256)": "7404adb6",
        "luckyDraw(address,address,uint256,uint256)": "3549cba6",
        "owner()": "8da5cb5b",
        "removeItem(address,address,uint256,uint256)": "7caaead2",
        "renounceOwnership()": "715018a6",
        "setAdmin(address,address,bool)": "d2e9953a",
        "startRaffle(address,uint256)": "03854651",
        "transferOwnership(address)": "f2fde38b"
    },
    "gasEstimates": {
        "creation": {
            "codeDepositCost": "1546800",
            "executionCost": "27458",
            "totalCost": "1574258"
        },
        "external": {
            "addAvailableNFT(address,address,uint256)": "infinite",
            "addItem(address,uint256,uint256,string)": "infinite",
            "cancelRaffle(address,uint256)": "34902",
            "createPool(address,address)": "infinite",
            "createRaffle(address,address,uint256,uint256)": "infinite",
            "destroyPool(address)": "infinite",
            "endRaffle(address,uint256)": "34828",
            "joinRaffle(address,uint256,uint256,address,uint256)": "infinite",
            "luckyDraw(address,address,uint256,uint256)": "infinite",
            "owner()": "2346",
            "removeItem(address,address,uint256,uint256)": "infinite",
            "renounceOwnership()": "infinite",
            "setAdmin(address,address,bool)": "infinite",
            "startRaffle(address,uint256)": "34820",
            "transferOwnership(address)": "infinite"
        }
    }
}